:020000040800F2
:10000000000002207D180008DD170008E517000831
:10001000ED170008F5170008FD17000800000000A4
:1000200000000000000000000000000005180008AB
:1000300011180008000000001D1800082918000809
:10004000CD180008CD180008CD180008CD180008FC
:10005000CD180008CD180008CD180008CD180008EC
:10006000CD180008CD180008CD180008CD180008DC
:10007000CD180008CD180008CD180008CD180008CC
:10008000CD180008CD18000835180008CD18000854
:10009000CD180008CD180008CD180008CD180008AC
:1000A000CD180008CD180008CD180008CD1800089C
:1000B000CD180008CD180008CD180008CD1800088C
:1000C000CD180008CD180008CD180008CD1800087C
:1000D000CD180008CD180008CD180008CD1800086C
:1000E000CD180008CD180008CD180008CD1800085C
:1000F000CD180008CD180008CD180008CD1800084C
:10010000CD180008CD180008CD180008CD1800083B
:10011000CD180008CD18000849180008CD180008AF
:100120005D180008CD180008CD180008CD1800088B
:10013000CD180008CD180008CD180008CD1800080B
:10014000CD180008CD180008CD180008CD180008FB
:10015000CD180008CD180008CD180008CD180008EB
:10016000CD180008CD180008CD180008CD180008DB
:10017000CD180008CD180008CD18000800000000B8
:04018000CD1800088E
:1001880010B5054C237833B9044B13B10448AFF3C9
:1001980000800123237010BD0C0000200000000027
:1001A800A448000808B5034B1BB103490348AFF343
:1001B800008008BD0000000010000020A4480008CE
:1001C8004FF0FF0C1CEAD0521EBF1CEAD15392EA32
:1001D8000C0F93EA0C0F6FD01A4480EA010C40020E
:1001E80018BF5FEA41211ED04FF0006343EA501068
:1001F80043EA5111A0FB01310CF00040B1F5000FAA
:100208003EBF490041EAD3715B0040EA010062F158
:100218007F02FD2A1DD8B3F1004F40EBC25008BF42
:1002280020F00100704790F0000F0CF0004C08BF60
:1002380049024CEA502040EA51207F3AC2BFD2F12D
:10024800FF0340EAC250704740F400004FF000033B
:10025800013A5DDC12F1190FDCBF00F00040704775
:10026800C2F10002410021FA02F1C2F1200200FAB3
:1002780002FC5FEA310040F1000053EA4C0308BF7A
:1002880020EADC70704792F0000F00F0004C02BFCB
:10029800400010F4000F013AF9D040EA0C0093F046
:1002A800000F01F0004C02BF490011F4000F013BA0
:1002B800F9D041EA0C018FE70CEAD15392EA0C0F0E
:1002C80018BF93EA0C0F0AD030F0004C18BF31F079
:1002D800004CD8D180EA010000F00040704790F04F
:1002E800000F17BF90F0004F084691F0000F91F0F3
:1002F800004F14D092EA0C0F01D142020FD193EAB9
:100308000C0F03D14B0218BF084608D180EA010040
:1003180000F0004040F0FE4040F40000704740F01C
:10032800FE4040F44000704781F0004102E000BF09
:1003380083F0004330B54FEA41044FEA430594EA9D
:10034800050F08BF90EA020F1FBF54EA000C55EAD8
:10035800020C7FEA645C7FEA655C00F0E2804FEAA9
:100368005454D4EB5555B8BF6D420CDD2C4480EA8B
:10037800020281EA030382EA000083EA010180EABB
:10038800020281EA0303362D88BF30BD11F0004F09
:100398004FEA01314FF4801C4CEA113102D040423F
:1003A80061EB410113F0004F4FEA03334CEA13337A
:1003B80002D0524263EB430394EA050F00F0A78092
:1003C800A4F10104D5F1200E0DDB02FA0EFC22FA8D
:1003D80005F2801841F1000103FA0EF2801843FA81
:1003E80005F359410EE0A5F120050EF1200E012A72
:1003F80003FA0EFC28BF4CF0020C43FA05F3C018B0
:1004080051EBE37101F0004507D54FF0000EDCF128
:10041800000C7EEB00006EEB0101B1F5801F1BD3D1
:10042800B1F5001F0CD349085FEA30004FEA3C0CD5
:1004380004F101044FEA445212F5800F80F09A80CB
:10044800BCF1004F08BF5FEA500C50F1000041EBCF
:10045800045141EA050130BD5FEA4C0C404141EBD3
:100468000101013C28BFB1F5801FE9D291F0000FCE
:1004780004BF01460020B1FA81F308BF2033A3F17D
:100488000B03B3F120020CDA0C3208DD02F1140C74
:10049800C2F10C0201FA0CF021FA02F10CE002F1AF
:1004A8001402D8BFC2F1200C01FA02F120FA0CFCA8
:1004B800DCBF41EA0C019040E41AA2BF01EB0451F1
:1004C800294330BD6FEA04041F3C1CDA0C340EDCEF
:1004D80004F11404C4F1200220FA04F001FA02F332
:1004E80040EA030021FA04F345EA030130BDC4F1F0
:1004F8000C04C4F1200220FA02F001FA04F340EAE5
:100508000300294630BD21FA04F0294630BD94F095
:10051800000F83F4801306BF81F480110134013D7C
:100528004EE77FEA645C18BF7FEA655C29D094EAED
:10053800050F08BF90EA020F05D054EA000C04BF6B
:100548001946104630BD91EA030F1EBF0021002056
:1005580030BD5FEA545C05D14000494128BF41F0F5
:10056800004130BD14F580043CBF01F5801130BD59
:1005780001F0004545F0FE4141F470014FF00000E4
:1005880030BD7FEA645C1ABF194610467FEA655C95
:100598001CBF0B46024650EA013406BF52EA033537
:1005A80091EA030F41F4002130BD00BF90F0000F25
:1005B80004BF0021704730B54FF4806404F1320461
:1005C8004FF000054FF0000150E700BF90F0000F1A
:1005D80004BF0021704730B54FF4806404F1320441
:1005E80010F0004548BF40424FF000013EE700BF11
:1005F80042004FEAE2014FEA31014FEA02701FBFA1
:1006080012F07F4393F07F4F81F06051704732F0D2
:100618007F4208BF704793F07F4F04BF41F4002129
:10062800704730B54FF4607401F0004521F0004187
:100638001CE700BF50EA010208BF704730B54FF011
:1006480000050AE050EA010208BF704730B511F012
:10065800004502D5404261EB41014FF4806404F14A
:1006680032045FEA915C3FF4D8AE4FF003025FEAD0
:10067800DC0C18BF03325FEADC0C18BF033202EB54
:10068800DC02C2F1200300FA03FC20FA02F001FAAE
:1006980003FE40EA0E0021FA02F11444BDE600BF51
:1006A80070B54FF0FF0C4CF4E06C1CEA11541DBF00
:1006B8001CEA135594EA0C0F95EA0C0F00F0DEF8CB
:1006C8002C4481EA030621EA4C5123EA4C5350EAB0
:1006D800013518BF52EA033541F4801143F4801301
:1006E80038D0A0FB02CE4FF00005E1FB02E506F092
:1006F8000042E0FB03E54FF00006E1FB03569CF0E7
:10070800000F18BF4EF0010EA4F1FF04B6F5007FEC
:1007180064F5407404D25FEA4E0E6D4146EB06065E
:1007280042EAC62141EA55514FEAC52040EA5E50E7
:100738004FEACE2EB4F1FD0C88BFBCF5E06F1ED891
:10074800BEF1004F08BF5FEA500E50F1000041EBC8
:10075800045170BD06F0004646EA010140EA020075
:1007680081EA0301B4EB5C04C2BFD4EB0C0541EA97
:10077800045170BD41F480114FF0000E013C00F3AC
:10078800AB8014F1360FDEBF002001F0004170BDD0
:10079800C4F10004203C35DA0C341BDC04F11404E9
:1007A800C4F1200500FA05F320FA04F001FA05F275
:1007B80040EA020001F0004221F0004110EBD37042
:1007C80021FA04F642EB06015EEA430E08BF20EA6E
:1007D800D37070BDC4F10C04C4F1200500FA04F311
:1007E80020FA05F001FA04F240EA020001F00041A3
:1007F80010EBD37041F100015EEA430E08BF20EA16
:10080800D37070BDC4F1200500FA05F24EEA020E5D
:1008180020FA04F301FA05F243EA020321FA04F08C
:1008280001F0004121FA04F220EA020000EBD37043
:100838005EEA430E08BF20EAD37070BD94F0000F43
:100848000FD101F00046400041EB010111F4801F77
:1008580008BF013CF7D041EA060195F0000F18BF28
:10086800704703F00046520043EB030313F4801F64
:1008780008BF013DF7D043EA0603704794EA0C0F1E
:100888000CEA135518BF95EA0C0F0CD050EA410634
:1008980018BF52EA4306D1D181EA030101F00041B1
:1008A8004FF0000070BD50EA410606BF10461946D9
:1008B80052EA430619D094EA0C0F02D150EA0136E5
:1008C80013D195EA0C0F05D152EA03361CBF104626
:1008D80019460AD181EA030101F0004141F0FE41C5
:1008E80041F470014FF0000070BD41F0FE4141F449
:1008F800780170BD70B54FF0FF0C4CF4E06C1CEA49
:1009080011541DBF1CEA135594EA0C0F95EA0C0FFD
:1009180000F0A7F8A4EB050481EA030E52EA0335B8
:100928004FEA013100F088804FEA03334FF08055D9
:1009380045EA131343EA12634FEA022245EA111506
:1009480045EA10654FEA00260EF000419D4208BFB7
:10095800964244F1FD0404F5407402D25B084FEA64
:100968003202B61A65EB03055B084FEA32024FF410
:1009780080104FF4002CB6EB020E75EB030E22BF6D
:10098800B61A754640EA0C005B084FEA3202B6EB2D
:10099800020E75EB030E22BFB61A754640EA5C00DC
:1009A8005B084FEA3202B6EB020E75EB030E22BF6C
:1009B800B61A754640EA9C005B084FEA3202B6EB6D
:1009C800020E75EB030E22BFB61A754640EADC002C
:1009D80055EA060E18D04FEA051545EA16754FEA8E
:1009E80006164FEAC30343EA52734FEAC2025FEAAC
:1009F8001C1CC0D111F4801F0BD141EA00014FF03B
:100A080000004FF0004CB6E711F4801F04BF01430B
:100A18000020B4F1FD0C88BFBCF5E06F3FF6AFAE27
:100A2800B5EB030C04BFB6EB020C5FEA500C50F1B7
:100A3800000041EB045170BD0EF0004E4EEA11313A
:100A480014EB5C04C2BFD4EB0C0541EA045170BD41
:100A580041F480114FF0000E013C90E645EA060E85
:100A68008DE60CEA135594EA0C0F08BF95EA0C0FB3
:100A78003FF43BAF94EA0C0F0AD150EA01347FF4FB
:100A880034AF95EA0C0F7FF425AF104619462CE7D2
:100A980095EA0C0F06D152EA03353FF4FDAE104635
:100AA800194622E750EA410618BF52EA43067FF486
:100AB800C5AE50EA41047FF40DAF52EA43057FF416
:100AC800EBAE12E74FF0FF3C06E000BF4FF0010C21
:100AD80002E000BF4FF0010C4DF804CD4FEA410C85
:100AE8007FEA6C5C4FEA430C18BF7FEA6C5C1BD052
:100AF80001B050EA410C0CBF52EA430C91EA030FD3
:100B080002BF90EA020F0020704710F1000F91EA2F
:100B1800030F58BF994208BF90422CBFD8176FEAFD
:100B2800E37040F0010070474FEA410C7FEA6C5CCB
:100B380002D150EA013C07D14FEA430C7FEA6C5CD2
:100B4800D6D152EA033CD3D05DF8040B704700BFFE
:100B58008446104662468C461946634600E000BF4C
:100B680001B5FFF7B7FF002848BF10F1000F01BD1E
:100B78004DF808EDFFF7F4FF0CBF012000205DF8E9
:100B880008FB00BF4DF808EDFFF7EAFF34BF01206E
:100B980000205DF808FB00BF4DF808EDFFF7E0FF07
:100BA80094BF012000205DF808FB00BF4DF808ED58
:100BB800FFF7CEFF94BF012000205DF808FB00BFBF
:100BC8004DF808EDFFF7C4FF34BF012000205DF8A1
:100BD80008FB00BF4A0011D212F5001211D20DD540
:100BE8006FF47873B3EB62520ED44FEAC12343F02B
:100BF800004343EA505323FA02F070474FF00000D5
:100C0800704750EA013002D14FF0FF3070474FF083
:100C1800000070474FEA4102B2F1E04324BFB3F548
:100C2800001CDCF1FE5C0DD901F0004C4FEAC0025B
:100C38004CEA5070B2F1004F40EB830008BF20F03F
:100C48000100704711F0804F21D113F13872BCBFF9
:100C580001F00040704741F480114FEA5252C2F14E
:100C68001802C2F1200C10FA0CF320FA02F018BF97
:100C780040F001004FEAC1234FEAD32303FA0CFCEA
:100C880040EA0C0023FA02F34FEA4303CCE77FEA79
:100C9800625307D150EA01331EBF4FF0FE4040F4C3
:100CA8004000704701F0004040F0FE4040F4000072
:100CB800704700BF53B94AB9002908BF00281CBFB4
:100CC8004FF0FF314FF0FF3000F068B9ADF1080C7C
:100CD8006DE904CE00F006F8DDF804E0DDE9022352
:100CE80004B070472DE9F047089D0C46002B4ED103
:100CF80094468C458646B2FA82F262D94AB1C2F16C
:100D08002003914020FA03F30CFA02FC194300FA7D
:100D180002FE4FEA1C47B1FBF7F407FB14111FFA58
:100D28008CF64FEA1E4343EA014304FB06F199425D
:100D38000AD91CEB030304F1FF3080F010819942BB
:100D480040F20D81023C6344591AB1FBF7F007FBEE
:100D5800101100FB06F61FFA8EF343EA01439E4288
:100D68000AD91CEB030300F1FF3180F0FA809E42A0
:100D780040F2F7806344023800219B1B40EA04409C
:100D88001DB1D3400022C5E90032BDE8F0878B428F
:100D980005D90DB1C5E9000100210846F5E7B3FA08
:100DA80083F1002946D1A34202D39042C0F0EE80DD
:100DB800861A64EB03030120002DE6D0C5E9006321
:100DC800E3E7002A40F08F80A1EB0C0401214FEAF1
:100DD8001C481FFA8CF7B4FBF8F608FB164407FB0F
:100DE80006F04FEA1E4343EA0443984208D91CEB35
:100DF800030306F1FF3402D2984200F2CB80264664
:100E08001C1AB4FBF8F008FB104400FB07F71FFAA4
:100E18008EF343EA04439F4208D91CEB030300F115
:100E2800FF3402D29F4200F2AE802046DB1B40EA2C
:100E38000640A5E7C1F120078B4022FA07FC4CEADF
:100E4800030C24FA07F64FEA1C49B6FBF9F81FFA17
:100E58008CFE09FB186620FA07F38C4000FA01FAA9
:100E680008FB0EF01C43230C43EA0643984202FA9F
:100E780001F20AD91CEB030308F1FF3680F08180E8
:100E880098427ED9A8F1020863441E1AB6FBF9F30A
:100E980009FB136603FB0EFEA4B244EA0644A6450A
:100EA80008D91CEB040403F1FF3066D2A64564D9C7
:100EB800023B644443EA0840A0FB0283A4EB0E040F
:100EC8009C42C6461E4650D34DD055B1BAEB0E03D0
:100ED80064EB060404FA07F7CB401F43CC40C5E98E
:100EE8000074002151E70CFA02FCC2F12003D9403A
:100EF8004FEA1C4820FA03F300FA02FEB1FBF8F0AF
:100F080008FB101194401C431FFA8CF7230C43EA8A
:100F1800014300FB07F1994208D91CEB030300F1D8
:100F2800FF362CD299422AD9023863445B1AB3FBA4
:100F3800F8F108FB1133A4B244EA034401FB07F3B8
:100F4800A34208D91CEB040401F1FF3613D2A342D3
:100F580011D902396444E41A41EA00413BE70446E6
:100F6800F2E6084608E7C245AFD2B8EB020E63EBDB
:100F78000C060138A9E73146EDE703469AE7304603
:100F8800D4E7B04681E7634402384FE70646234674
:100F9800084611E7023E634432E700BF704700BFCE
:100FA80080B500AF00F090FC00F074F800F0CAF9CA
:100FB80000F0A8F900F052F900F07AF900F0B2F860
:100FC80000F022F92E4B1B684FF08B411846FFF7B3
:100FD800F7F803461846FFF70BFB25A3D3E90023D0
:100FE800FFF788FC02460B4610461946FFF7F2FD4C
:100FF80003469AB2234B1A80214B1B681846FFF709
:10100800F7FA1DA3D3E90023FFF794F902460B462C
:1010180010461946FFF7FEFD0346194A1360184BA0
:101028001B681846FFF7E4FA11A3D3E90023FFF77A
:10103800C7FD0346002B03D0114B4FF000021A6086
:10104800104B1B88002200210F4801F004FC0021EE
:101058000D4801F054FB03220C490D4800F01AFE1C
:101068004FF47A7000F09EFC094800F0F1FEA9E701
:101078006666666666660A409A9999999999B93F2B
:101088001806002014060020D000002008060020C2
:101098002800002080B592B000AF07F11803302275
:1010A8000021184603F0CDFB3B1D00221A605A6050
:1010B8009A60DA601A610223BB6101237B62102304
:1010C800BB6202233B6300237B630D23BB63C32303
:1010D800FB6302233B6405237B6407F1180318466E
:1010E80002F0EEFA0346002B01D000F0D9F90F23E5
:1010F8007B600223BB600023FB604FF4A0533B617D
:101108004FF480537B613B1D0321184602F02CFDF0
:101118000346002B01D000F0C3F900BF4837BD4695
:1011280080BD000080B584B000AF3B4600221A6045
:101138005A609A60DA60314B314A1A602F4B0022AC
:101148005A602E4B00229A602C4B01221A612B4BBD
:1011580001221A76294B002283F82020274B0022EF
:10116800DA62264B274A9A62244B0022DA60234B24
:101178000322DA61214B002283F830201F4B012221
:101188005A611E4800F032FC0346002B01D000F0E3
:1011980087F903233B6001237B600123BB603B4647
:1011A8001946164800F0CAFE0346002B01D000F08D
:1011B80077F905233B6002237B600223BB603B4633
:1011C80019460E4800F0BAFE0346002B01D000F085
:1011D80067F906233B6003237B600323BB603B4620
:1011E8001946064800F0AAFE0346002B01D000F07D
:1011F80057F900BF1037BD4680BD00BF280000204A
:10120800002001400100000F80B582B000AF3B46CE
:1012180000221A605A600F4B0F4A1A600D4801F0FD
:101228004CFA0346002B01D000F03AF900233B604A
:1012380000237B603B4600221946064801F03DFB2F
:101248000346002B01D000F02BF900BF0837BD463C
:1012580080BD00BFD00000200074004080B500AF02
:10126800114B124A1A60104B4FF4E1325A600E4B80
:1012780000229A600C4B0022DA600B4B00221A61A4
:10128800094B0C225A61084B00229A61064B002236
:10129800DA61054802F0AEFE0346002B01D000F0EB
:1012A800FFF800BF80BD00BFE400002000480040F8
:1012B80080B500AF124B4FF0A0421A60104B0422C9
:1012C8001A710F4B0222DA710D4B00229A710C4BE6
:1012D80002225A720A4B01229A72094B0022DA72D0
:1012E800074B01229A73064B0022DA73044802F076
:1012F800D7F80346002B01D000F0D2F800BF80BD1C
:101308002C01002080B582B000AF00237B600C4B1D
:101318001B6B0B4A43F480031363094B1B6B03F4E9
:1013280080037B607B6800220021382001F08FF960
:10133800382001F0A8F900BF0837BD4680BD00BFBE
:101348000038024080B58CB000AF07F11C030022C2
:101358001A605A609A60DA601A610023BB614C4BCC
:101368001B6B4B4A43F004031363494B1B6B03F09D
:101378000403BB61BB6900237B61454B1B6B444A7B
:1013880043F080031363424B1B6B03F080037B61C4
:101398007B6900233B613E4B1B6B3D4A43F00103D5
:1013A80013633B4B1B6B03F001033B613B69002359
:1013B800FB60374B1B6B364A43F002031363344B15
:1013C8001B6B03F00203FB60FB680023BB60304B20
:1013D8001B6B2F4A43F0080313632D4B1B6B03F061
:1013E8000803BB60BB6800237B60294B1B6B284A42
:1013F80043F040031363264B1B6B03F040037B60F1
:101408007B68002244F28101224802F031F8002270
:101418004021214802F02CF84FF40053FB614FF4AF
:1014280088133B6200237B6207F11C0319461B48A3
:1014380001F080FE44F28103FB6101233B6200233B
:101448007B620023BB6207F11C031946114801F0B7
:1014580071FE4023FB6101233B6200237B62002372
:10146800BB6207F11C0319460B4801F063FE802399
:10147800FB6100233B6200237B6207F11C031946D2
:10148800054801F057FE00BF3037BD4680BD00BF9C
:1014980000380240000402400018024000080240E0
:1014A80080B400AF72B600BF00BFFDE780B483B060
:1014B80000AF00237B600F4B5B6C0E4A43F4804304
:1014C80053640C4B5B6C03F480437B607B680023A4
:1014D8003B60084B1B6C074A43F080531364054B71
:1014E8001B6C03F080533B603B6800BF0C37BD4664
:1014F80080BC70470038024080B58AB000AF786081
:1015080007F1140300221A605A609A60DA601A61BF
:101518007B681B68334A93425FD100233B61324B9F
:101528005B6C314A43F4807353642F4B5B6C03F458
:1015380080733B613B690023FB602B4B1B6B2A4A82
:1015480043F001031363284B1B6B03F00103FB609B
:10155800FB6868237B610323BB610023FB6107F100
:1015680014031946214801F0E5FD214B214A1A6070
:101578001F4B00225A601E4B00229A601C4B00220F
:10158800DA601B4B4FF480621A61194B4FF480529A
:101598005A61174B4FF480429A61154B4FF4807291
:1015A800DA61134B00221A62114B00225A6210486A
:1015B80001F0E4F90346002B01D0FFF771FF7B68C7
:1015C8000B4A9A630A4A7B6893630022002112201F
:1015D80001F03DF8122001F056F800BF2837BD464B
:1015E80080BD00BF002001400038024000000240DA
:1015F800700000201064024080B58AB000AF7860A7
:1016080007F1140300221A605A609A60DA601A61BE
:101618007B681B681B4A93422FD100233B611A4BFE
:101628001B6C194A43F000531364174B1B6C03F0EF
:1016380000533B613B690023FB60134B1B6B124A51
:1016480043F001031363104B1B6B03F00103FB60B2
:10165800FB6810237B610323BB610023FB6107F157
:1016680014031946094801F065FD002200213620BF
:1016780000F0EDFF362001F006F800BF2837BD4620
:1016880080BD00BF007400400038024000000240E6
:1016980080B58AB000AF786007F1140300221A60A1
:1016A8005A609A60DA601A617B681B68194A93422B
:1016B8002CD100233B61184B1B6C174A43F4802341
:1016C8001364154B1B6C03F480233B613B690023B7
:1016D800FB60114B1B6B104A43F0080313630E4B5E
:1016E8001B6B03F00803FB60FB684FF440737B61DE
:1016F8000223BB610023FB6103233B6207237B6258
:1017080007F114031946054801F014FD00BF2837F6
:10171800BD4680BD0048004000380240000C024031
:1017280080B58AB000AF786007F1140300221A6010
:101738005A609A60DA601A617B681B68B3F1A04F3F
:101748003FD100233B61214B1B6B204A43F001032F
:1017580013631E4B1B6B03F001033B613B694FF4A2
:10176800E8537B610223BB610023FB6103233B62D7
:101778000A237B6207F114031946154801F0DAFCC5
:101788004FF400737B610023BB610023FB6107F109
:10179800140319460E4801F0CDFC0C4B5B6B0B4A49
:1017A80043F0800353630023FB60084B5B6C074ADC
:1017B80043F480435364054B5B6C03F48043FB6044
:1017C800FB6800BF2837BD4680BD00BF0038024017
:1017D8000000024080B400AF00BFFDE780B400AF56
:1017E80000BFFDE780B400AF00BFFDE780B400AFE5
:1017F80000BFFDE780B400AF00BFFDE780B400AFD5
:1018080000BFBD4680BC704780B400AF00BFBD4676
:1018180080BC704780B400AF00BFBD4680BC704735
:1018280080B500AF00F0A2F800BF80BD80B500AF62
:10183800024800F01EF900BF80BD00BF280000204C
:1018480080B500AF024800F0B0FF00BF80BD00BF08
:10185800D000002080B500AF024801F005FA00BFB3
:1018680080BD00BF7000002080B400AF00BFBD463F
:1018780080BC7047DFF834D0FFF7F6FF0C480D49FD
:101888000D4A002302E0D458C4500433C4188C42D3
:10189800F9D30A4A0A4C002301E013600432A24239
:1018A800FBD302F0D7FFFFF77BFB70470000022055
:1018B800000000200C000020EC4800080C0000206C
:1018C80020060020FEE7000080B500AF0E4B1B6825
:1018D8000D4A43F4007313600B4B1B680A4A43F428
:1018E80080631360084B1B68074A43F480731360D6
:1018F800032000F0A1FE002000F008F8FFF7D6FD55
:101908000023184680BD00BF003C024080B582B06D
:1019180000AF7860124B1A68124B1B7819464FF4C7
:101928007A73B3FBF1F3B2FBF3F3184600F0B9FE98
:101938000346002B01D001230EE07B680F2B0AD849
:10194800002279684FF0FF3000F081FE064A7B687C
:101958001360002300E0012318460837BD4680BD08
:1019680000000020080000200400002080B400AF20
:10197800054B1B781A46054B1B681344034A136032
:1019880000BFBD4680BC7047080000201C06002030
:1019980080B400AF024B1B681846BD4680BC704738
:1019A8001C06002080B584B000AF7860FFF7F0FF18
:1019B800B8607B68FB60FB68B3F1FF3F05D00A4B5A
:1019C8001B781A46FB681344FB6000BFFFF7E0FF73
:1019D8000246BB68D31AFA689A42F7D800BF00BF1C
:1019E8001037BD4680BD00BF0800002080B584B018
:1019F80000AF78600023FB737B68002B01D10123C3
:101A080033E07B681B6C002B09D17868FFF774FD05
:101A18007B6800225A647B68002283F83C207B683C
:101A28001B6C03F01003002B18D17B681B6C23F48C
:101A3800885323F0020343F002027B681A64786833
:101A480000F09CFB7B6800225A647B681B6C23F0C7
:101A5800030343F001027B681A6401E00123FB736E
:101A68007B68002283F83C20FB7B18461037BD4674
:101A780080BD80B586B000AF786000237B6100230D
:101A88003B617B681B681B68FB607B681B685B6845
:101A9800BB60FB6803F002037B61BB6803F02003B3
:101AA8003B617B69002B49D03B69002B46D07B68A2
:101AB8001B6C03F01003002B05D17B681B6C43F4EF
:101AC80000727B681A647B681B689B6803F040534C
:101AD800002B2BD17B681B7E002B27D17B681B68D2
:101AE800DB6A03F47003002B06D07B681B689B68D5
:101AF80003F48063002B19D17B681B685A687B68E4
:101B08001B6822F020025A607B681B6C23F48072E9
:101B18007B681A647B681B6C03F48053002B05D127
:101B28007B681B6C43F001027B681A64786800F0DC
:101B3800E0F97B681B686FF012021A60FB6803F01B
:101B480004037B61BB6803F080033B617B69002B66
:101B580057D03B69002B54D07B681B6C03F01003F3
:101B6800002B05D17B681B6C43F400527B681A6418
:101B78007B681B689B6803F44013002B39D17B6892
:101B88001B689B6B03F44013002B06D07B681B6813
:101B98009B6803F48063002B2BD17B681B685B6810
:101BA80003F48063002B24D17B681B689B6803F0D7
:101BB8004053002B1DD17B681B7E002B19D17B68FD
:101BC8001B685A687B681B6822F080025A607B6831
:101BD8001B6C23F480527B681A647B681B6C03F4CB
:101BE8008073002B05D17B681B6C43F001027B6876
:101BF8001A64786800F04AFC7B681B686FF00C0276
:101C08001A60FB6803F001037B61BB6803F04003C3
:101C18003B617B69002B17D03B69002B14D07B6894
:101C28001B681B6803F00103012B0DD17B681B6C3B
:101C380043F480327B681A64786800F06CF97B683A
:101C48001B686FF001021A60FB6803F020037B61D8
:101C5800BB6803F080633B617B69002B15D03B694F
:101C6800002B12D07B685B6C43F002027B685A64DD
:101C78007B681B686FF020021A60786800F054F9DE
:101C88007B681B686FF020021A6000BF1837BD46DA
:101C980080BD000080B586B000AFF860B9607A609A
:101CA80000237B61FB6893F83C30012B01D10223B0
:101CB800BCE0FB68012283F83C20FB681B689B683A
:101CC80003F00103012B18D0FB681B689A68FB68B6
:101CD8001B6842F001029A60564B1B68564AA2FBE9
:101CE80003239A0C13465B0013447B6102E07B6973
:101CF800013B7B617B69002BF9D1FB681B689B6802
:101D080003F00103012B40F08480FB681B6C23F473
:101D1800E06323F0010343F48072FB681A64FB68F4
:101D28001B685B6803F48063002B07D0FB681B6C9F
:101D380023F4405343F48052FB681A64FB681B6C1D
:101D480003F48053B3F5805F06D1FB685B6C23F026
:101D58000602FB685A6402E0FB6800225A64FB68CA
:101D6800002283F83C20FB689B6B344ADA63FB68EB
:101D78009B6B334A1A64FB689B6B324ADA64FB68D4
:101D88001B686FF022021A60FB681B685A68FB68C0
:101D98001B6842F080625A60FB681B689A68FB689F
:101DA8001B6842F480729A60FB68986BFB681B683A
:101DB8004C331946BA687B6800F08EFE224B5B688C
:101DC80003F01F03002B0FD1FB681B689B6803F00F
:101DD8004053002B29D1FB681B689A68FB681B6875
:101DE80042F080429A6020E0FB681B68174A9342E1
:101DF8001BD1FB681B689B6803F04053002B14D170
:101E0800FB681B689A68FB681B6842F080429A600E
:101E18000BE0FB681B6C43F01002FB681A64FB685C
:101E28005B6C43F00102FB685A64002318461837BC
:101E3800BD4680BD0000002083DE1B4391230008BF
:101E48004B240008672400080023014000200140BB
:101E580080B584B000AF78600023FB737B6893F88B
:101E68003C30012B01D102233FE07B68012283F83B
:101E78003C207B681B689A687B681B6822F001021B
:101E88009A607B681B689B6803F00103002B27D1CD
:101E98007B681B689A687B681B6822F480729A606A
:101EA8007B689B6B93F83530DBB2022B18D17B68CB
:101EB8009B6B184600F068FE0346FB737B681B6843
:101EC8005A687B681B6822F080625A607B681B6CCA
:101ED80023F4885323F0010343F001027B681A645A
:101EE8007B68002283F83C20FB7B18461037BD46F0
:101EF80080BD80B483B000AF786000BF0C37BD46AA
:101F080080BC704780B483B000AF786000BF0C37E6
:101F1800BD4680BC704780B483B000AF786000BF16
:101F28000C37BD4680BC704780B483B000AF786082
:101F380000BF0C37BD4680BC7047000080B485B038
:101F480000AF786039600023FB607B6893F83C3011
:101F5800012B01D1022303E17B68012283F83C2095
:101F68003B681B68092B25D97B681B68D9683B68C7
:101F78001B689BB21A4613465B0013441E3B07229C
:101F880002FA03F3DA437B681B680A40DA607B686D
:101F98001B68D9683B689A683B681B689BB21846FF
:101FA80003465B0003441E3B9A407B681B680A4358
:101FB800DA6022E07B681B6819693B681B689BB282
:101FC8001A4613465B001344072202FA03F3DA4366
:101FD8007B681B680A401A617B681B6819693B6843
:101FE8009A683B681B689BB2184603465B0003442B
:101FF8009A407B681B680A431A613B685B68062B3A
:1020080024D87B681B68596B3B685A6813469B0049
:102018001344053B1F2202FA03F3DA437B681B686B
:102028000A405A637B681B68596B3B681B689BB204
:1020380018463B685A6813469B001344053B00FA50
:1020480003F27B681B680A435A634CE03B685B6891
:102058000C2B24D87B681B68196B3B685A6813469D
:102068009B001344233B1F2202FA03F3DA437B68E5
:102078001B680A401A637B681B68196B3B681B68FE
:102088009BB218463B685A6813469B001344233B8F
:1020980000FA03F27B681B680A431A6323E07B6833
:1020A8001B68D96A3B685A6813469B001344413B36
:1020B8001F2202FA03F3DA437B681B680A40DA62DC
:1020C8007B681B68D96A3B681B689BB218463B68EB
:1020D8005A6813469B001344413B00FA03F27B689D
:1020E8001B680A43DA627B681B68204A934209D15D
:1020F8003B681B68122B05D11D4B5B681C4A43F4D7
:10210800800353607B681B68184A934223D13B685D
:102118001B68102B03D03B681B68112B1BD1144B79
:102128005B68134A43F4000353603B681B68102B39
:1021380011D1104B1B68104AA2FB03239A0C1346BB
:102148009B0013445B00FB6002E0FB68013BFB6003
:10215800FB68002BF9D17B68002283F83C20002320
:1021680018461437BD4680BC704700BF00200140A8
:10217800002301400000002083DE1B4380B485B0AB
:1021880000AF78607E4B5B687D4A23F44033536030
:102198007B4B5A687B685B68794913434B607B6863
:1021A8001B685A687B681B6822F480725A607B68D7
:1021B8001B6859687B681B691A027B681B680A439D
:1021C8005A607B681B685A687B681B6822F04072FB
:1021D8005A607B681B6859687B689A687B681B68CB
:1021E8000A435A607B681B689A687B681B6822F4FC
:1021F80000629A607B681B6899687B68DA687B680C
:102208001B680A439A607B689B6A5E4A934222D0A5
:102218007B681B689A687B681B6822F070629A600A
:102228007B681B6899687B689A6A7B681B680A43A5
:102238009A607B681B689A687B681B6822F040522A
:102248009A607B681B6899687B68DA6A7B681B6898
:102258000A439A600FE07B681B689A687B681B6872
:1022680022F070629A607B681B689A687B681B68BA
:1022780022F040529A607B681B689A687B681B68EA
:1022880022F002029A607B681B6899687B681B7E53
:102298005A007B681B680A439A607B6893F8203071
:1022A800002B27D07B681B685A687B681B6842F440
:1022B80000625A607B681B685A687B681B6822F456
:1022C80060425A607B685B6A013B4FF46042FA6087
:1022D800FA6892FAA2F2BA60BA68B2FA82F2D2B294
:1022E80003FA02F17B681B685A687B681B680A431B
:1022F8005A6007E07B681B685A687B681B6822F491
:1023080000625A607B681B68DA6A7B681B6822F483
:102318007002DA627B681B68D96A7B68DB69013BFB
:102328001A057B681B680A43DA627B681B689A682F
:102338007B681B6822F400729A607B681B68996846
:102348007B6893F830305A027B681B680A439A60AE
:102358007B681B689A687B681B6822F480629A60B5
:102368007B681B6899687B685B699A027B681B6855
:102378000A439A6000BF1437BD4680BC704700BF4F
:10238800002301400100000F80B584B000AF7860E1
:102398007B689B6BFB60FB681B6C03F05003002B96
:1023A8003CD1FB681B6C43F40072FB681A64FB6841
:1023B8001B689B6803F04053002B2BD1FB681B7EE6
:1023C800002B27D1FB681B68DB6A03F47003002B22
:1023D80006D0FB681B689B6803F48063002B19D147
:1023E800FB681B685A68FB681B6822F020025A6069
:1023F800FB681B6C23F48072FB681A64FB681B6C17
:1024080003F48053002B05D1FB681B6C43F00102D9
:10241800FB681A64F868FFF76CFD0EE0FB681B6C3C
:1024280003F01003002B03D0F868FFF77DFD04E0EC
:10243800FB689B6BDB6C7868984700BF1037BD461C
:1024480080BD80B584B000AF78607B689B6BFB6013
:10245800F868FFF757FD00BF1037BD4680BD80B54F
:1024680084B000AF78607B689B6BFB60FB684022A0
:102478001A64FB685B6C43F00402FB685A64F868F2
:10248800FFF752FD00BF1037BD4680BD80B483B052
:1024980000AF786000BF0C37BD4680BC70470000B5
:1024A80080B485B000AF78607B6803F00703FB60F9
:1024B8000C4BDB68BB60BA684FF6FF031340BB6088
:1024C800FB681A02BB68134343F0BF6343F400334D
:1024D800BB60044ABB68D36000BF1437BD4680BCEC
:1024E800704700BF00ED00E080B400AF044BDB682C
:1024F8001B0A03F007031846BD4680BC704700BF9F
:1025080000ED00E080B483B000AF0346FB7197F99B
:102518000730002B0BDBFB7903F01F02064997F904
:1025280007305B09012000FA02F241F8232000BFBE
:102538000C37BD4680BC704700E100E080B483B032
:1025480000AF03463960FB7197F90730002B0ADBAF
:102558003B68DAB20C4997F907301201D2B20B4442
:1025680083F800230AE03B68DAB20849FB7903F0F4
:102578000F03043B1201D2B20B441A7600BF0C378A
:10258800BD4680BC704700BF00E100E000ED00E000
:1025980080B489B000AFF860B9607A60FB6803F076
:1025A8000703FB61FB69C3F10703042B28BF04235E
:1025B800BB61FB690433062B02D9FB69033B00E0CE
:1025C80000237B614FF0FF32BB6902FA03F3DA4361
:1025D800BB681A407B699A404FF0FF317B6901FA6A
:1025E80003F3D9437B680B40134318462437BD4691
:1025F80080BC704780B582B000AF78607B68013BD3
:10260800B3F1807F01D301230FE00A4A7B68013BC5
:1026180053600F214FF0FF30FFF790FF054B00226A
:102628009A60044B07221A60002318460837BD46F3
:1026380080BD00BF10E000E080B582B000AF7860D8
:102648007868FFF72DFF00BF0837BD4680BD80B50D
:1026580086B000AF0346B9607A60FB7300237B61E4
:10266800FFF742FF78617A68B9687869FFF790FFE9
:10267800024697F90F3011461846FFF75FFF00BF73
:102688001837BD4680BD80B582B000AF0346FB71E8
:1026980097F907301846FFF735FF00BF0837BD46E2
:1026A80080BD80B582B000AF78607868FFF7A2FF80
:1026B800034618460837BD4680BD80B582B000AFD6
:1026C80078607B68002B01D1012314E07B681B79BB
:1026D800DBB2002B05D17B6800225A717868FEF7BF
:1026E8008BFF7B6802221A717B6800221A617B6863
:1026F80001221A71002318460837BD4680BD80B4F0
:1027080083B000AF786039607B68002B01D101236A
:1027180046E07B685B79012B01D1022340E07B68AE
:1027280001225A717B6802221A717B681B6819683A
:102738003B6803F0100301229A407B681B680A4338
:102748001A603B68002B0FD17B681B681B6803F07D
:102758003C033C2B1DD17B681B685A687B681B684F
:1027680042F001025A6014E07B681B681B6803F49E
:1027780070123B6803F010033C2101FA03F39A42FC
:1027880007D17B681B685A687B681B6842F00202A5
:102798005A607B6801221A717B6800225A710023F3
:1027A80018460C37BD4680BC704780B584B000AF72
:1027B80078607B681B681B68FB607B681B685B6BC9
:1027C800BB60FB6803F40053002B1DD0BB6803F407
:1027D8000053002B18D07B6804221A717B681B6990
:1027E80043F001027B681A617B681B684FF4005252
:1027F8005A637B681B681A687B681B6822F48052DE
:102808001A60786800F050F8FB6803F00053002B5A
:102818001DD0BB6803F00053002B18D07B6804223E
:102828001A717B681B6943F002027B681A617B6836
:102838001B684FF000525A637B681B681A687B68F4
:102848001B6822F080521A60786800F08EF800BF8A
:102858001037BD4680BD80B487B000AFF860B9605E
:102868007A603B6000237B61FB68002B01D1012368
:1028780015E0FB681B687B61BB68002B05D17A6992
:102888007B68134408337B6104E07A697B681344EE
:1028980014337B617B691A463B6813600023184632
:1028A8001C37BD4680BC704780B483B000AF7860E9
:1028B80000BF0C37BD4680BC704780B489B000AFFC
:1028C800F860B9607A600023FB77FB68002B02D0C0
:1028D800BB68002B01D1012342E0FB685B79012B27
:1028E80001D102233CE0FB6801225A71FB680222F5
:1028F8001A71FB681B681B68BB617B6803F01003D7
:1029080040F6FE7202FA03F3DB43BA691340BB6177
:10291800BB681A68BB685B6813437B617B6803F01C
:1029280010037A6902FA03F3BA691343BB61FB68BF
:102938001B68BA691A60FB681B6819687B6803F032
:102948001003C02202FA03F3DA43FB681B680A404B
:102958001A60FB6801221A71FB6800225A71FB7F1A
:1029680018462437BD4680BC704780B483B000AF9A
:10297800786000BF0C37BD4680BC704780B586B014
:1029880000AF786000237B61FFF702F838617B684D
:10299800002B01D1012399E07B68022283F83520BE
:1029A8007B68002283F834207B681B681A687B6880
:1029B8001B6822F001021A600FE0FEF7E9FF0246E9
:1029C8003B69D31A052B08D97B6820225A657B6896
:1029D800032283F83520032378E07B681B681B6893
:1029E80003F00103002BE8D17B681B681B687B613F
:1029F8007A69384B13407B617B685A687B689B68AF
:102A08001A437B68DB681A437B681B691A437B6837
:102A18005B691A437B689B691A437B68DB691A43C5
:102A28007B681B6A13437A6913437B617B685B6A23
:102A3800042B07D17B68DA6A7B681B6B13437A69BE
:102A480013437B617B681B687A691A607B681B6823
:102A58005B697B617B6923F007037B617B685B6A49
:102A68007A6913437B617B685B6A042B17D17B68A7
:102A78009B6A7A6913437B617B68DB6A002B0ED003
:102A8800786800F0DDFA0346002B08D07B68402206
:102A98005A657B68012283F83520012316E07B689C
:102AA8001B687A695A61786800F096FA0346FB60F9
:102AB8007B68DB6D3F229A40FB689A607B68002246
:102AC8005A657B68012283F8352000231846183799
:102AD800BD4680BD3F8010F080B586B000AFF8607D
:102AE800B9607A603B600023FB75FB689B6D3B61B6
:102AF800FB6893F83430012B01D1022340E0FB68D6
:102B0800012283F83420FB6893F83530DBB2012BBF
:102B18002FD1FB68022283F83520FB6800225A6512
:102B28003B687A68B968F86800F028FAFB68DB6DDA
:102B38003F229A403B699A60FB681B681A68FB68E9
:102B48001B6842F016021A60FB681B6C002B07D04A
:102B5800FB681B681A68FB681B6842F008021A6069
:102B6800FB681B681A68FB681B6842F001021A6060
:102B780005E0FB68002283F834200223FB75FB7D07
:102B880018461837BD4680BD80B584B000AF786060
:102B98007B689B6DFB60FEF7FBFEB8607B6893F873
:102BA8003530DBB2022B08D07B6880225A657B68FF
:102BB800002283F83420012352E07B681B681A68DE
:102BC8007B681B6822F016021A607B681B685A69CA
:102BD8007B681B6822F080025A617B681B6C002BA3
:102BE80003D17B689B6C002B07D07B681B681A6835
:102BF8007B681B6822F008021A607B681B681A68E9
:102C08007B681B6822F001021A6013E0FEF7C0FE21
:102C18000246BB68D31A052B0CD97B6820225A655B
:102C28007B68032283F835207B68002283F83420F0
:102C3800032315E07B681B681B6803F00103002B66
:102C4800E4D17B68DB6D3F229A40FB689A607B6821
:102C5800012283F835207B68002283F83420002382
:102C680018461037BD4680BD80B586B000AF786085
:102C78000023BB608E4B1B688E4AA2FB03239B0A72
:102C88007B617B689B6D3B613B691B68FB607B6874
:102C9800DB6D08229A40FB681340002B1AD07B6832
:102CA8001B681B6803F00403002B13D07B681B68A8
:102CB8001A687B681B6822F004021A607B68DB6D67
:102CC80008229A403B699A607B685B6D43F0010279
:102CD8007B685A657B68DB6D01229A40FB6813406C
:102CE800002B12D07B681B685B6903F08003002B04
:102CF8000BD07B68DB6D01229A403B699A607B6848
:102D08005B6D43F002027B685A657B68DB6D0422C9
:102D18009A40FB681340002B12D07B681B681B6825
:102D280003F00203002B0BD07B68DB6D04229A4072
:102D38003B699A607B685B6D43F004027B685A6567
:102D48007B68DB6D10229A40FB681340002B43D050
:102D58007B681B681B6803F00803002B3CD07B686A
:102D6800DB6D10229A403B699A607B681B681B6880
:102D780003F48023002B18D07B681B681B6803F4BE
:102D88000023002B08D17B681B6C002B24D07B68A8
:102D98001B6C786898471FE07B689B6C002B1BD0E6
:102DA8007B689B6C7868984716E07B681B681B6893
:102DB80003F48073002B07D17B681B681A687B6853
:102DC8001B6822F008021A607B681B6C002B03D07A
:102DD8007B681B6C786898477B68DB6D20229A407B
:102DE800FB681340002B00F08F807B681B681B6812
:102DF80003F01003002B00F087807B68DB6D202236
:102E08009A403B699A607B6893F83530DBB2052BB2
:102E180036D17B681B681A687B681B6822F016022B
:102E28001A607B681B685A697B681B6822F08002FD
:102E38005A617B681B6C002B03D17B689B6C002B51
:102E480007D07B681B681A687B681B6822F0080239
:102E58001A607B68DB6D3F229A403B699A607B6809
:102E6800012283F835207B68002283F834207B68B0
:102E78001B6D002B7ED07B681B6D7868984779E0C6
:102E88007B681B681B6803F48023002B1DD07B68BC
:102E98001B681B6803F40023002B0DD17B685B6C57
:102EA800002B31D07B685B6C786898472CE000BFBA
:102EB80000000020B5814E1B7B68DB6B002B23D004
:102EC8007B68DB6B786898471EE07B681B681B682B
:102ED80003F48073002B0FD17B681B681A687B682A
:102EE8001B6822F010021A607B68012283F83520E3
:102EF8007B68002283F834207B68DB6B002B03D0CF
:102F08007B68DB6B786898477B685B6D002B32D0F9
:102F18007B685B6D03F00103002B22D07B680522E0
:102F280083F835207B681B681A687B681B6822F069
:102F380001021A60BB680133BB607A699A4207D301
:102F48007B681B681B6803F00103002BF2D100E0CB
:102F580000BF7B68012283F835207B68002283F854
:102F680034207B68DB6C002B05D07B68DB6C7868D1
:102F7800984700E000BF1837BD4680BD80B485B0D3
:102F880000AFF860B9607A603B60FB681B681A683C
:102F9800FB681B6822F480221A60FB681B683A6889
:102FA8005A60FB689B68402B08D1FB681B687A68ED
:102FB8009A60FB681B68BA68DA6007E0FB681B6800
:102FC800BA689A60FB681B687A68DA6000BF1437D1
:102FD800BD4680BC7047000080B485B000AF786003
:102FE8007B681B68DBB2103B134AA2FB03231B0957
:102FF800FB60124AFB6813441B781A467B68DA6543
:10300800FB68032B09D97B681B6823F47F7323F0C3
:1030180003031A1D7B689A6507E07B681B6823F425
:103028007F7323F003037A6893657B689B6D18466A
:103038001437BD4680BC7047ABAAAAAAD44800087A
:1030480080B485B000AF78600023FB737B689B6A0F
:10305800BB607B689B69002B1FD1BB68032B56D8CC
:1030680001A252F823F000BF813000089330000815
:1030780081300008173100087B68DB6A03F0807331
:10308800002B46D00123FB7343E07B68DB6AB3F176
:10309800C07F40D10123FB733DE07B689B69B3F59A
:1030A800005F21D1BB68032B37D801A252F823F067
:1030B800C9300008CF300008C9300008E1300008E6
:1030C8000123FB7330E07B68DB6A03F08073002B1D
:1030D80025D00123FB7322E07B68DB6AB3F1C07F54
:1030E8001FD10123FB731CE0BB68022B03D9BB680B
:1030F800032B03D018E00123FB7315E07B68DB6A20
:1031080003F08073002B0ED00123FB730BE000BF8C
:103118000AE000BF08E000BF06E000BF04E000BF0F
:1031280002E000BF00E000BFFB7B18461437BD4635
:1031380080BC704780B487B000AF786039600023E6
:103148007B616FE13B681A6801217B6901FA03F32F
:103158001340FB60FB68002B00F061813B685B68F3
:1031680003F00303012B05D03B685B6803F00303FE
:10317800022B30D17B689B683B617B695B00032233
:1031880002FA03F3DB433A6913403B613B68DA68B0
:103198007B695B0002FA03F33A6913433B617B687E
:1031A8003A699A607B685B683B6101227B6902FA35
:1031B80003F3DB433A6913403B613B685B681B09D7
:1031C80003F001027B6902FA03F33A6913433B6196
:1031D8007B683A695A603B685B6803F00303032B1A
:1031E80017D07B68DB683B617B695B00032202FACE
:1031F80003F3DB433A6913403B613B689A687B6998
:103208005B0002FA03F33A6913433B617B683A694E
:10321800DA603B685B6803F00303022B23D17B6908
:10322800DA087B68083253F822303B617B6903F087
:1032380007039B000F2202FA03F3DB433A691340AA
:103248003B613B681A697B6903F007039B0002FA3C
:1032580003F33A6913433B617B69DA087B680832F8
:10326800396943F822107B681B683B617B695B0006
:10327800032202FA03F3DB433A6913403B613B68DC
:103288005B6803F003027B695B0002FA03F33A69A7
:1032980013433B617B683A691A603B685B6803F4D7
:1032A8004033002B00F0BB800023BB60644B5B6C99
:1032B800634A43F480435364614B5B6C03F480437B
:1032C800BB60BB685F4A7B699B08023352F82330B6
:1032D8003B617B6903F003039B000F2202FA03F3AF
:1032E800DB433A6913403B617B68574A934231D0CC
:1032F8007B68564A93422BD07B68554A934225D027
:103308007B68544A93421FD07B68534A934219D032
:103318007B68524A934213D07B68514A93420DD03E
:103328007B68504A934207D07B684F4A934201D149
:10333800082310E009230EE007230CE006230AE027
:10334800052308E0042306E0032304E0022302E047
:10335800012300E000237A6902F0030292009340FF
:103368001A463B6913433B6136497B699B08023324
:103378003A6941F823203D4B9B683B61FB68DB437E
:103388003A6913403B613B685B6803F48013002B88
:1033980003D03A69FB6813433B61344A3B69936045
:1033A800324BDB683B61FB68DB433A6913403B61A6
:1033B8003B685B6803F40013002B03D03A69FB6891
:1033C80013433B61294A3B69D360284B5B683B61E7
:1033D800FB68DB433A6913403B613B685B6803F475
:1033E8000033002B03D03A69FB6813433B611F4A43
:1033F8003B6953601D4B1B683B61FB68DB433A69C3
:1034080013403B613B685B6803F48033002B03D0B7
:103418003A69FB6813433B61144A3B6913607B6953
:1034280001337B613B681A687B6922FA03F3002B3E
:103438007FF488AE00BF00BF1C37BD4680BC704714
:1034480000380240003801400000024000040240F9
:1034580000080240000C0240001002400014024024
:1034680000180240001C024000200240003C0140BD
:1034780080B483B000AF78600B467B8013467B70C6
:103488007B78002B03D07A887B689A6103E07B887D
:103498001A047B689A6100BF0C37BD4680BC704730
:1034A80080B586B002AF78607B68002B01D101231C
:1034B80001E17B681B68BB607B6893F89534DBB2DD
:1034C800002B06D17B68002283F894247868FEF7E5
:1034D80027F97B68032283F89524BB68B3F1A04FD2
:1034E80002D17B6800229A717B681B68184600F03D
:1034F80014FF7B6818687B681A7C8DF800200433F9
:103508000ECB00F0B1FE0346002B05D07B680222EB
:1035180083F895240123CEE07B681B6800211846B8
:1035280000F00BFF0346002B05D07B68022283F8CE
:1035380095240123BFE00023FB734AE0FA7B7968F6
:103548001346DB0013449B000B44153301221A7009
:10355800FA7B79681346DB0013449B000B44143351
:10356800FA7B1A70FA7BFB7B98B279681346DB000A
:1035780013449B000B442E3302461A80FA7B796869
:103588001346DB0013449B000B44183300221A70C7
:10359800FA7B79681346DB0013449B000B441C3309
:1035A80000221A60FA7B79681346DB0013449B00FB
:1035B8000B44203300221A60FA7B79681346DB003B
:1035C80013449B000B44243300221A60FB7B013315
:1035D800FB737B681B79FA7B9A42AFD30023FB739A
:1035E80044E0FA7B79681346DB0013449B000B44E4
:1035F80003F2552300221A70FA7B79681346DB0020
:1036080013449B000B4403F51573FA7B1A70FA7B7D
:1036180079681346DB0013449B000B4403F51673CB
:1036280000221A70FA7B79681346DB0013449B006A
:103638000B4403F5177300221A60FA7B7968134666
:10364800DB0013449B000B4403F5187300221A6037
:10365800FA7B79681346DB0013449B000B4403F59F
:10366800197300221A60FB7B0133FB737B681B799B
:10367800FA7B9A42B5D37B6818687B681A7C8DF808
:10368800002004330ECB00F0A5FE0346002B05D026
:103698007B68022283F8952401230CE07B680022D2
:1036A8005A747B68012283F895247B681B68184646
:1036B80001F06AF8002318461037BD4680BD0000A7
:1036C80080B58AB000AF78607B68002B01D10123F8
:1036D8003BE27B681B6803F00103002B50D09E4B34
:1036E8009B6803F00C03042B0CD09B4B9B6803F0E6
:1036F8000C03082B12D1984B5B6803F48003B3F5D5
:10370800800F0BD1944B1B6803F40033002B36D089
:103718007B685B68002B32D1012316E27B685A680C
:103728008E4BD2B21A707B685B68002B13D0FEF701
:103738002FF9386208E0FEF72BF902463B6AD31AE4
:10374800642B01D9032300E2834B1B6803F4003385
:10375800002BF0D014E0FEF71BF9386208E0FEF702
:1037680017F902463B6AD31A642B01D90323ECE10B
:10377800794B1B6803F40033002BF0D100E000BF45
:103788007B681B6803F00203002B77D0724B9B68A1
:1037980003F00C03002B0BD06F4B9B6803F00C035A
:1037A800082B26D16C4B5B6803F48003002B20D1D7
:1037B800694B1B6803F00203002B05D07B68DB68AC
:1037C800012B01D00123C0E1634B1B6823F0F802F1
:1037D8007B681B69F821B961B96991FAA1F179612E
:1037E8007969B1FA81F1C9B28B405B4913430B6027
:1037F80044E07B68DB68002B2AD0594B01221A6011
:10380800FEF7C6F8386208E0FEF7C2F802463B6ADF
:10381800D31A022B01D9032397E14F4B1B6803F0FE
:103828000203002BF0D04C4B1B6823F0F8027B6896
:103838001B69F8213961396991FAA1F1F960F968D0
:10384800B1FA81F1C9B28B40434913430B6015E0CB
:10385800434B00221A60FEF79BF8386208E0FEF737
:1038680097F802463B6AD31A022B01D903236CE16D
:10387800394B1B6803F00203002BF0D17B681B68EF
:1038880003F00803002B30D07B685B69002B16D04F
:10389800344B01221A60FEF77BF8386208E0FEF725
:1038A80077F802463B6AD31A022B01D903234CE16D
:1038B800294B5B6F03F00203002BF0D015E0294B76
:1038C80000221A60FEF764F8386208E0FEF760F834
:1038D80002463B6AD31A022B01D9032335E11E4B5A
:1038E8005B6F03F00203002BF0D17B681B6803F0C9
:1038F8000403002B00F08780002387F82730164B3D
:103908001B6C03F08053002B10D10023BB60124BBB
:103918001B6C114A43F0805313640F4B1B6C03F06C
:103928008053BB60BB68012387F827300E4B1B68A8
:103938000D4A43F4807313600B4B1B6803F48073C8
:10394800002B22D1084B1B68074A43F4807313608D
:10395800FEF71EF8386212E00038024002380240D2
:1039680000004742800E474200700040FEF710F802
:1039780002463B6AD31A022B01D90323E5E0754BB3
:103988001B6803F48073002BF0D07B689A68724B35
:10399800D2B21A707B689B68002B15D0FDF7F8FF30
:1039A80038620AE0FDF7F4FF02463B6AD31A41F297
:1039B8008832934201D90323C7E0684B1B6F03F099
:1039C8000203002BEED014E0FDF7E2FF38620AE0B4
:1039D800FDF7DEFF02463B6AD31A41F28832934272
:1039E80001D90323B1E05D4B1B6F03F00203002BE9
:1039F800EED197F82730012B05D1584B1B6C574A4D
:103A080023F0805313647B689B69002B00F09C8033
:103A1800524B9B6803F00C03082B61D07B689B69B1
:103A2800022B46D14E4B00221A60FDF7B1FF3862D7
:103A380008E0FDF7ADFF02463B6AD31A642B01D9B3
:103A4800032382E0454B1B6803F00073002BF0D181
:103A5800424B5A68434B13407A68D1697A68126AB4
:103A680011437A68526A920111437A68D26A12063F
:103A780011437A68926A5208013A12040A43374994
:103A880013434B60364B01221A60FDF781FF386201
:103A980008E0FDF77DFF02463B6AD31A642B01D983
:103AA800032352E02D4B1B6803F00073002BF0D06A
:103AB8004AE02B4B00221A60FDF76AFF386208E0E3
:103AC800FDF766FF02463B6AD31A642B01D903232C
:103AD8003BE0224B1B6803F00073002BF0D133E06E
:103AE8007B689B69012B01D101232EE01B4B5B688E
:103AF800FB61FB6903F480027B68DB699A4221D190
:103B0800FB6903F03F027B681B6A9A421AD1FA6983
:103B180047F6C07313407A68526A9201934211D1F2
:103B2800FB6903F440327B689B6A5B08013B1B041A
:103B38009A4207D1FB6903F070627B68DB6A1B0657
:103B48009A4201D0012300E0002318462837BD46D9
:103B580080BD00BF0070004070380240003802404D
:103B6800600047420080BCF080B586B000AF786046
:103B780039607B68002B01D10123D2E06B4B1B68B5
:103B880003F00F033A689A420CD9684B3A68D2B2EC
:103B98001A70664B1B6803F00F033A689A4201D00B
:103BA8000123BEE07B681B6803F00203002B20D0D2
:103BB8007B681B6803F00403002B05D05C4B9B68F3
:103BC8005B4A43F4E05393607B681B6803F0080387
:103BD800002B05D0564B9B68554A43F460439360CD
:103BE800534B9B6823F0F0027B689B685049134352
:103BF8008B607B681B6803F00103002B40D07B6857
:103C08005B68012B07D14A4B1B6803F40033002B78
:103C180015D1012385E07B685B68022B07D1444BF3
:103C28001B6803F00073002B09D1012379E0404B96
:103C38001B6803F00203002B01D1012371E03C4B08
:103C48009B6823F003027B685B68394913438B60E8
:103C5800FDF79EFE78610AE0FDF79AFE02467B6951
:103C6800D31A41F28832934201D9032359E0304BE9
:103C78009B6803F00C027B685B689B009A42EBD15F
:103C88002A4B1B6803F00F033A689A420CD2274B61
:103C98003A68D2B21A70254B1B6803F00F033A68D2
:103CA8009A4201D001233CE07B681B6803F00403BF
:103CB800002B08D01E4B9B6823F4E0527B68DB681E
:103CC8001B4913438B607B681B6803F00803002BB8
:103CD80009D0174B9B6823F460427B681B69DB00A3
:103CE800134913438B6000F02BF80146104B9B6877
:103CF80003F0F003F0223A613A6992FAA2F2FA600C
:103D0800FA68B2FA82F2D2B2D3400A4AD35C21FAF4
:103D180003F3094A1360094B1B681846FDF7F6FDC3
:103D2800002318461837BD4680BD00BF003C02403E
:103D380000380240BC4800080000002004000020B1
:103D48002DE9B04F94B000AF00237B640023FB64DF
:103D580000233B640023BB647C4B9B6803F00C038B
:103D6800082B0DD0082B00F2E780002B02D0042B83
:103D780003D0E1E0764BBB64E1E0764BBB64DEE068
:103D8800724B5B6803F03F037B64704B5B6803F422
:103D98008003002B65D06D4B5B689B090022BB63D9
:103DA800FA63BB6BC3F308033B6300237B63D7E968
:103DB8000C4522462B464FF000004FF000015901F8
:103DC80041EAD261500102460B462146511A396137
:103DD800294663EB01037B614FF000024FF00003BB
:103DE800D7E904AB59468B01514643EA91635146E2
:103DF8008A01D446B2EB0C08594663EB01094FF02F
:103E080000024FF000034FEAC90343EA58734FEA30
:103E1800C80290469946234618EB0303BB602B461D
:103E280049EB0303FB604FF000024FF00003D7E9B2
:103E3800024529464B0220462946044643EAD45304
:103E480001464A02104619467B6C0022BB62FA62A0
:103E5800D7E90A23FCF72EFF02460B461346FB64FC
:103E68005CE03A4B5B689B09002218461146C0F398
:103E780008033B6200237B62D7E9088942464B4628
:103E88004FF000004FF00001590141EAD2615001A2
:103E980002460B46C446B2EB0C0A404649468C46DD
:103EA80063EB0C0B4FF000024FF000034FEA8B134B
:103EB80043EA9A634FEA8A12B2EB0A0463EB0B05F2
:103EC8004FF000024FF00003EB0043EA5473E200A6
:103ED80014461D460346E3183B600B4645EB0303B7
:103EE8007B604FF000024FF00003D7E900452946F8
:103EF8008B0220462946044643EA945301468A0227
:103F0800104619467B6C0022BB61FA61D7E906238B
:103F1800FCF7D0FE02460B461346FB640B4B5B686E
:103F28001B0C03F0030301335B003B64FA6C3B6C2E
:103F3800B2FBF3F3BB6402E0054BBB6400BFBB6C90
:103F480018465037BD46BDE8B08F00BF0038024064
:103F58000024F40000127A0080B400AF024B1B6802
:103F68001846BD4680BC70470000002080B582B06E
:103F780000AFFFF7F1FF01460B4B9B6803F4E053DA
:103F88004FF4E0527A607A6892FAA2F23A603A689C
:103F9800B2FA82F2D2B2D340044AD35C21FA03F3D4
:103FA80018460837BD4680BD00380240CC48000896
:103FB80080B582B000AFFFF7CFFF01460B4B9B687F
:103FC80003F460434FF460427A607A6892FAA2F28E
:103FD8003A603A68B2FA82F2D2B2D340044AD35C69
:103FE80021FA03F318460837BD4680BD0038024061
:103FF800CC48000880B582B000AF78607B68002BA1
:1040080001D1012342E07B6893F84130DBB2002BF9
:1040180006D17B68002283F840207868FDF738FBDA
:104028007B68242283F841207B681B68DA687B68F8
:104038001B6822F40052DA60786800F02BF87B687D
:104048001B681A697B681B6822F490421A617B68B6
:104058001B685A697B681B6822F02A025A617B68D0
:104068001B68DA687B681B6842F40052DA607B6878
:1040780000225A647B68202283F841207B68202232
:1040880083F842207B6800225A63002318460837C9
:10409800BD4680BD80B584B000AF78607B681B6882
:1040A8001B6923F440517B68DA687B681B680A4304
:1040B8001A617B689A687B681B691A437B685B692D
:1040C8001A437B68DB691343BB607B681B68DB684A
:1040D80023F4164323F00C037A681268B9680B437B
:1040E800D3607B681B685B6923F440717B689A69BD
:1040F8007B681B680A435A617B681B68574A93426E
:1041080004D07B681B68564A934203D1FFF750FFDF
:10411800F86002E0FFF72AFFF8607B68DB69B3F517
:10412800004F4CD1FA6813469B0013449A001A4476
:104138007B685B685B00B2FBF3F34A4AA2FB03238C
:104148005B091901FA6813469B0013449A001A4444
:104158007B685B685B00B2FBF3F2424BA3FB020394
:104168005B09642000FB03F3D31ADB0032333D4ABA
:10417800A2FB03235B095B0003F4F8731944FA6894
:1041880013469B0013449A001A447B685B685B00E3
:10419800B2FBF3F2334BA3FB02035B09642000FB81
:1041A80003F3D31ADB0032332E4AA2FB03235B0945
:1041B80003F007027B681B680A449A604AE0FA68C1
:1041C80013469B0013449A001A447B685B689B0063
:1041D800B2FBF3F3234AA2FB03235B091901FA6834
:1041E80013469B0013449A001A447B685B689B0043
:1041F800B2FBF3F21B4BA3FB02035B09642000FB39
:1042080003F3D31A1B013233164AA2FB03235B09BB
:1042180003F0F0031944FA6813469B0013449A000C
:104228001A447B685B689B00B2FBF3F20D4BA3FB5F
:1042380002035B09642000FB03F3D31A1B0132332A
:10424800084AA2FB03235B0903F00F027B681B6883
:104258000A449A6000BF1037BD4680BD0010014077
:10426800001401401F85EB5184B080B584B000AFC5
:10427800786007F11C0080E80E0097F82130012BC8
:1042880023D17B689B6B23F480327B689A637B68BD
:10429800DB6823F4840323F040037A68D3607B68E7
:1042A800DB6823F440127B68DA6097F82830012B2A
:1042B80005D17B68DB6843F480127B68DA60786834
:1042C80000F08FFA0346FB7310E07B68DB6843F06D
:1042D80040027B68DA60786800F083FA0346FB7373
:1042E8007B689B6B43F480327B689A63BB7F012BAE
:1042F8000BD17B689B6843F006027B689A607B68F9
:104308009B6843F020027B689A60FB7B1846103755
:10431800BD46BDE8804004B0704780B483B000AFAC
:1043280078607B689B6823F001027B689A600023B1
:1043380018460C37BD4680BC704780B584B000AFC6
:1043480078600B46FB700023FB607B68DB6823F01A
:10435800C0427B68DA60FB78012B15D17B68DB688B
:1043680043F000527B68DA600A20FDF71BFBFB680C
:104378000A33FB60786800F027FA0346012B1ED049
:10438800FB68C72BF0D91AE0FB78002B15D17B68A6
:10439800DB6843F080427B68DA600A20FDF702FBA5
:1043A800FB680A33FB60786800F00EFA0346002BBE
:1043B80005D0FB68C72BF0D901E0012305E0FB68B5
:1043C800C82B01D1012300E0002318461037BD4651
:1043D80080BD000084B080B586B000AF786007F17A
:1043E800240080E80E000023FB757B68FB60002337
:1043F8003B6109E07A683B6940339B001344002223
:104408005A603B6901333B613B690E2BF2D997F83F
:104418002E30002B1CD1FB6803F500635B68FA683B
:1044280002F5006243F0020353607B689B6B43F420
:1044380000127B689A637B689B6B23F400227B687D
:104448009A637B689B6B23F480227B689A630BE0FA
:104458007B689B6B23F400127B689A637B689B6B79
:1044680043F400227B689A63FB6803F560631A468D
:104478000023136097F82930012B0DD197F82730C6
:10448800002B04D10021786800F066F908E00121CA
:10449800786800F061F903E00321786800F05CF9BE
:1044A8001021786800F0FAF80346002B01D00123A8
:1044B800FB75786800F023F90346002B01D001232F
:1044C800FB75FB6803F500631A4600231361FB685C
:1044D80003F500631A4600235361FB6803F5006384
:1044E8001A460023D36100233B6143E03B695A012C
:1044F800FB68134403F510631B6803F00043B3F132
:10450800004F18D13B69002B0AD13B695A01FB685F
:10451800134403F510631A464FF00063136013E069
:104528003B695A01FB68134403F510631A464FF0C0
:104538009043136008E03B695A01FB68134403F594
:1045480010631A46002313603B695A01FB68134441
:1045580003F510631A46002313613B695A01FB688F
:10456800134403F510631A464FF67F3393603B6993
:1045780001333B6197F824301A463B699342B5D31F
:1045880000233B6143E03B695A01FB68134403F590
:1045980030631B6803F00043B3F1004F18D13B6947
:1045A800002B0AD13B695A01FB68134403F53063B9
:1045B8001A464FF00063136013E03B695A01FB6829
:1045C800134403F530631A464FF09043136008E034
:1045D8003B695A01FB68134403F530631A4600230C
:1045E80013603B695A01FB68134403F530631A46AC
:1045F800002313613B695A01FB68134403F53063D8
:104608001A464FF67F3393603B6901333B6197F855
:1046180024301A463B699342B5D3FB6803F500631F
:104628001B69FA6802F5006223F4807313617B68E2
:1046380000229A617B686FF080425A6197F82630B1
:10464800002B05D17B689B6943F010027B689A6157
:104658007B689A69104B13437A68936197F82A30FC
:10466800002B05D07B689B6943F008027B689A6140
:1046780097F82E30012B07D17B689B6943F0804364
:1046880043F004037A689361FB7D18461837BD46EA
:10469800BDE8804004B0704700383C8080B485B0E5
:1046A80000AF786039600023FB60FB680133FB6072
:1046B800FB68B3F1706F01D903231BE07B681B69AA
:1046C800002BF2DA0023FB603B689B0143F02002D9
:1046D8007B681A61FB680133FB60FB68B3F1706F9C
:1046E80001D9032306E07B681B6903F02003202B14
:1046F800F0D0002318461437BD4680BC704780B4FC
:1047080085B000AF78600023FB60FB680133FB6075
:10471800FB68B3F1706F01D9032318E07B681B694C
:10472800002BF2DA0023FB607B6810221A61FB6819
:104738000133FB60FB68B3F1706F01D9032306E016
:104748007B681B6903F01003102BF0D00023184678
:104758001437BD4680BC704780B485B000AF786020
:104768000B46FB707B68FB60FB6803F500631A6807
:10477800FB78F96801F5006113430B6000231846C4
:104788001437BD4680BC704780B485B000AF7860F0
:104798007B68FB60FB6803F560631B68FA6802F5D9
:1047A800606223F003031360FB6803F500635B6832
:1047B800FA6802F5006243F00203536000231846CA
:1047C8001437BD4680BC704780B483B000AF7860B2
:1047D8007B685B6903F0010318460C37BD4680BC53
:1047E800704780B485B000AF78600023FB60FB6839
:1047F8000133FB60FB68B3F1706F01D903231BE041
:104808007B681B69002BF2DA0023FB607B681B695D
:1048180043F001027B681A61FB680133FB60FB68A7
:10482800B3F1706F01D9032306E07B681B6903F0BD
:104838000103012BF0D0002318461437BD4680BC75
:10484800704703460244934200D1704703F8011BA6
:10485800F9E7000070B500260C4D0D4C641BA41040
:10486800A64209D100F01AF800260A4D0A4C641B2A
:10487800A410A64205D170BD55F8043B98470136EF
:10488800EEE755F8043B98470136F2E7E44800089C
:10489800E4480008E4480008E8480008F8B500BF04
:1048A800F8BC08BC9E467047F8B500BFF8BC08BC09
:0448B8009E46704761
:1048BC0000000000000000000102030406070809C4
:1048CC00000000000102030400061016000610167A
:0848DC0010C4FF7F0100000081
:0448E400AD0100081A
:0448E800890100083A
:0C48EC000024F400100000000100000097
:040000050800187D5A
:00000001FF
